:1000000012C024C023C022C021C020C01FC01EC0F7
:100010001DC01CC01BC01AC019C018C017C016C014
:1000200015C014C013C011241FBECFE5D4E0DEBF3D
:10003000CDBF10E0A0E6B0E0E6E3F1E002C005903D
:100040000D92AA36B107D9F743D073C0D9CF959A8C
:100050000000000082B3807C82BB089517BA979A93
:1000600082B3887F82BBC79B02C0F1DFFCCF8FEFDA
:1000700087BB0895CF93DF931F92CDB7DEB78983F7
:10008000EDDF898188BB82B38B7782BBE0DF18BA52
:100090000F90DF91CF910895CF93DF931F92CDB74B
:1000A000DEB78983DBDF898188BB9798929ACFDF9F
:1000B00018BA0F90DF91CF910895CF93DF93EC01A1
:1000C0008991181614F4E8DFFBCFDF91CF910895E2
:1000D00081B3846A81BB8FE295E70197F1F700C095
:1000E000000081E0C7DF8FE99FE00197F1F700C0D2
:1000F000000088E3BFDF95E89A95F1F700008EE0F5
:10010000B9DF25E82A95F1F7000081E0B3DF8FE938
:100110009FE00197F1F700C0000080E690E0CDDF9E
:100120009FEF20E782E0915020408040E1F700C03F
:06013000EBCFF894FFCFB5
:0A013600524944444849534821004F
:00000001FF