:100000000C942A000C9447000C9447000C94470071
:100010000C9447000C9447000C9447000C94470044
:100020000C9447000C9447000C9447000C94470034
:100030000C9447000C9447000C9447000C94470024
:100040000C94C1000C9447000C9447000C9447009A
:100050000C94470011241FBECFE5D8E0DEBFCDBF12
:1000600010E0A0E6B0E0EAEFF4E002C005900D92E7
:10007000AC36B107D9F710E0ACE6B0E001C01D9294
:10008000A639B107E1F70E9408020C947B020C9498
:100090000000C49A0000000088B3807E88BB0895E9
:1000A00011BAC39A88B3887F88BB979B03C00E940C
:1000B0004900FBCF8FEF81BB0895CF93DF931F9251
:1000C000CDB7DEB789830E945000898182BB88B397
:1000D000837F88BB0E94490012BA0F90DF91CF91B5
:1000E0000895CF93DF931F92CDB7DEB789830E9427
:1000F0005000898182BBC398C29A0E94490012BAFB
:100100000F90DF91CF910895CF93DF93EC01899108
:1001100018161CF40E947100FACFDF91CF91089558
:10012000EF92FF920F931F93CF93DF93CDB7DEB77C
:10013000EDB6FEB62DB73EB7261B310967FD3395E8
:100140000FB6F8943EBF0FBE2DBF0DB71EB70F5FA1
:100150001F4F4AE050E0B8010E944A02C8010E94C5
:10016000840080E690E00E9484000FB6F894FEBE02
:100170000FBEEDBEDF91CF911F910F91FF90EF90D9
:1001800008951F920F920FB60F9211242F933F9351
:100190004F935F936F937F938F939F93AF93BF938F
:1001A000EF93FF9324B185B130E0382B87B18134D0
:1001B00009F470C0823409F4C3C0803409F016C158
:1001C0004091920050919300809182009091830021
:1001D000403551056CF4280F391F3093830020936C
:1001E00082004F5F5F4F509393004093920045C051
:1001F00060E570E00E943602709383006093820095
:1002000030938F0020938E0081E00E945D0083EF89
:1002100091E00197F1F700C0000080E80E945D00C6
:1002200083EF91E00197F1F700C0000082E690E0D3
:100230000E94840064E080918E0090918F000E9463
:10024000900083ED90E30197F1F700C00000109259
:10025000930010929200109283001092820080917D
:100260008E0090918F00889F9001899F300D300DF6
:100270001124309389002093880080EC0E945D0057
:1002800087B164E090E00E94900084E690E00E94D4
:100290008400ACC040919200509193008091820004
:1002A00090918300403551056CF4280F391F30932D
:1002B0008300209382004F5F5F4F509393004093E1
:1002C00092003CC060E570E00E94360270938300AB
:1002D0006093820070938D0060938C0085E80E948B
:1002E0005D0083EF91E00197F1F700C0000088E620
:1002F00090E00E94840064E080918C0090918D00D9
:100300000E94900083ED90E30197F1F700C0000098
:10031000109293001092920010928300109282002B
:1003200080918C0090918D00889F9001899F300D65
:10033000300D1124309387002093860080E455C04F
:10034000409192005091930080918200909183009F
:10035000403551056CF4280F391F309383002093EA
:1003600082004F5F5F4F50939300409392003CC0D8
:1003700060E570E00E943602709383006093820013
:1003800070938B0060938A008AE80E945D0083EF7F
:1003900091E00197F1F700C000008AE690E00E942A
:1003A000840064E080918A0090918B000E9490000C
:1003B00083ED90E30197F1F700C0000010929300E5
:1003C00010929200109283001092820080918A0015
:1003D00090918B00889F9001899F300D300D1124E2
:1003E000309385002093840081E487B9369AFF9189
:1003F000EF91BF91AF919F918F917F916F915F919D
:100400004F913F912F910F900FBE0F901F90189515
:1004100087B38C6187BB85EA9EE00197F1F700C046
:1004200000008FEF84BB81E00E945D0083EF91E0CC
:100430000197F1F700C0000088E30E945D0090E1A1
:100440009A95F1F700C08EE00E945D0080E18A95E8
:10045000F1F700C0329A80E487B9339A379A7894DA
:10046000369A1092930010929200FFCFAA1BBB1BEA
:1004700051E107C0AA1FBB1FA617B70710F0A61BA4
:10048000B70B881F991F5A95A9F780959095BC01C5
:10049000CD010895FB019F01E8944230C4F045323C
:1004A000B4F44A3029F497FB1EF4909581959F4F40
:1004B000642F77270E943602805D8A330CF0895DB5
:1004C0008193CB010097A1F716F45DE2519310825E
:1004D000C9010C946B02DC01FC01672F7191772339
:1004E000E1F7329704C07C916D9370836291AE17EF
:0A04F000BF07C8F30895F894FFCF8A
:0C04FA00200030004F555400310032004B
:00000001FF
