:100000000C942A000C9447000C9447000C94470071
:100010000C9447000C9447000C9447000C94470044
:100020000C9447000C9447000C9447000C94470034
:100030000C9447000C9447000C9447000C94470024
:100040000C94C1000C9447000C9447000C9447009A
:100050000C94470011241FBECFE5D8E0DEBFCDBF12
:1000600010E0A0E6B0E0E2E6F5E002C005900D92F7
:10007000A83AB107D9F710E0A8EAB0E001C01D9294
:10008000A43BB107E1F70E94FB010C94AF020C9472
:100090000000C49A0000000088B3807E88BB0895E9
:1000A00011BAC39A88B3887F88BB979B03C00E940C
:1000B0004900FBCF8FEF81BB0895CF93DF931F9251
:1000C000CDB7DEB789830E945000898182BB88B397
:1000D000837F88BB0E94490012BA0F90DF91CF91B5
:1000E0000895CF93DF931F92CDB7DEB789830E9427
:1000F0005000898182BBC398C29A0E94490012BAFB
:100100000F90DF91CF910895CF93DF93EC01899108
:1001100018161CF40E947100FACFDF91CF91089558
:10012000EF92FF920F931F93CF93DF93CDB7DEB77C
:10013000EDB6FEB62DB73EB7261B310967FD3395E8
:100140000FB6F8943EBF0FBE2DBF0DB71EB70F5FA1
:100150001F4F4AE050E0B8010E947E02C8010E9491
:1001600084008BE790E00E9484000FB6F894FEBEF6
:100170000FBEEDBEDF91CF911F910F91FF90EF90D9
:1001800008951F920F920FB60F9211242F933F9351
:100190004F935F936F937F938F939F93AF93BF938F
:1001A000CF93DF93EF93FF9324B185B130E0382BE9
:1001B00087B1823C09F4D0C0833C09F008C140916A
:1001C000B2005091B3008091AE009091AF004035E5
:1001D00051056CF4280F391F3093AF002093AE0007
:1001E0004F5F5F4F5093B3004093B200F0C061E5A2
:1001F00070E00E9429027093AF006093AE0070938C
:10020000B1006093B00081E00E945D0083EF91E057
:100210000197F1F700C00000C091AE00D091AF008F
:100220009E0140E050E068E977EB80E090E00E94BA
:100230003D023093AD002093AC00273E310551F4D0
:1002400080E690E00E94840080EC0E945D008BE6D6
:1002500090E065C064E0CE010E9490008AE790E0E3
:100260000E94840064E08091AC009091AD000E94F7
:1002700090008DE790E00E94840080EC0E945D0079
:100280008091AC009091AD008D32914094F08091BE
:10029000AA009091AB008D3291405CF08091A80053
:1002A0009091A9008D32914024F081E890E00E9465
:1002B00084008091AC009091AD00895C91098336F7
:1002C0009105B0F48091AA009091AB00895C9109EE
:1002D0008336910568F48091A8009091A900895C0B
:1002E00091098336910520F48CE890E00E94840007
:1002F0008091AC009091AD00883C910594F4809180
:10030000AA009091AB00883C91055CF48091A80014
:100310009091A900883C910524F48AE990E00E941C
:10032000840083E294EF0197F1F700C0000010927F
:10033000B3001092B2008091AA009091AB0090930C
:10034000A9008093A8008091AC009091AD0090939B
:10035000AB008093AA003BC04091B2005091B30023
:100360008091AE009091AF00443651056CF4280F97
:10037000391F3093AF002093AE004F5F5F4F509313
:10038000B3004093B20021C065E670E00E942902EC
:10039000CB017093AF006093AE007093B100609397
:1003A000B00064E00E9490008DE790E00E9484001D
:1003B0009FE52AEE80E0915020408040E1F700C0A8
:1003C00000001092B3001092B20081EC87B9369A07
:1003D000FF91EF91DF91CF91BF91AF919F918F915D
:1003E0007F916F915F914F913F912F910F900FBE31
:1003F0000F901F90189587B38C6187BB85EA9EE0AC
:100400000197F1F700C000008FEF84BB81E00E94EC
:100410005D0083EF91E00197F1F700C0000088E3F1
:100420000E945D0090E19A95F1F700C08EE00E9475
:100430005D0080E18A95F1F700C0329A83EC87B9BC
:10044000339A379A7894369A1092B3001092B20089
:10045000FFCFAA1BBB1B51E107C0AA1FBB1FA617DA
:10046000B70710F0A61BB70B881F991F5A95A9F75D
:1004700080959095BC01CD010895052E97FB1EF443
:1004800000940E94540257FD07D00E945C0207FCB2
:1004900003D04EF40C94540250954095309521951C
:1004A0003F4F4F4F5F4F08959095809570956195A0
:1004B0007F4F8F4F9F4F0895A1E21A2EAA1BBB1B9F
:1004C000FD010DC0AA1FBB1FEE1FFF1FA217B30720
:1004D000E407F50720F0A21BB30BE40BF50B661F36
:1004E000771F881F991F1A9469F7609570958095FA
:1004F00090959B01AC01BD01CF010895FB019F01C7
:10050000E8944230C4F04532B4F44A3029F497FB01
:100510001EF4909581959F4F642F77270E942902A2
:10052000805D8A330CF0895D8193CB010097A1F740
:1005300016F45DE251931082C9010C949F02DC0114
:10054000FC01672F71917723E1F7329704C07C910A
:100550006D9370836291AE17BF07C8F30895F89446
:02056000FFCFCB
:10056200436F6E64756374696E6700436F6D706C80
:100572006574656C7920576574002C20004D202C21
:100582000053616665205A6F6E6521005761726E75
:10059200696E67205A6F6E65210044616E676572ED
:0805A200205A6F6E6521000074
:00000001FF
