:100000000C942A000C9447000C9447000C94470071
:100010000C9447000C9447000C9447000C94470044
:100020000C9447000C9447000C9447000C94470034
:100030000C9447000C9447000C9447000C94470024
:100040000C94C1000C9447000C9447000C9447009A
:100050000C94470011241FBECFE5D8E0DEBFCDBF12
:1000600010E0A0E6B0E0ECEBF3E002C005900D92EA
:10007000A436B107D9F710E0A4E6B0E001C01D92A4
:10008000A636B107E1F70E946E010C94DC010C94D6
:100090000000C49A0000000088B3807E88BB0895E9
:1000A00011BAC59A88B3807888BB979B03C00E9419
:1000B0004900FBCF8FEF81BB0895CF93DF931F9251
:1000C000CDB7DEB789830E945000898182BB88B397
:1000D0008F7988BB0E94490012BA0F90DF91CF91AF
:1000E0000895CF93DF931F92CDB7DEB789830E9427
:1000F0005000898182BBC598C69A0E94490012BAF5
:100100000F90DF91CF910895CF93DF93EC01899108
:1001100018161CF40E947100FACFDF91CF91089558
:10012000EF92FF920F931F93CF93DF93CDB7DEB77C
:10013000EDB6FEB62DB73EB7261B310967FD3395E8
:100140000FB6F8943EBF0FBE2DBF0DB71EB70F5FA1
:100150001F4F4AE050E0B8010E949701C8010E9479
:10016000840080E690E00E9484000FB6F894FEBE02
:100170000FBEEDBEDF91CF911F910F91FF90EF90D9
:1001800008951F920F920FB60F9211240F931F9391
:100190002F933F934F935F936F937F938F939F938F
:1001A000AF93BF93CF93DF93EF93FF93C4B185B128
:1001B000D0E08E01182B81E00E945D0083EF91E07A
:1001C0000197F1F700C0000064E0C8010E949000B0
:1001D00085B1D82BD0936500C093640082E690E08F
:1001E0000E94840080EC0E945D0083EF91E0019703
:1001F000F1F700C0000064E0809164009091650018
:100200000E9490008FE493EC0197F1F700C000008A
:1002100080916400909165008636910510F415BABE
:1002200047C09C01275631092536310510F481E07D
:100230003EC09C012D5C31092536310510F482E069
:1002400036C09C01235331402536310510F483E03C
:100250002EC09C01295931402536310510F480E427
:1002600026C09C012F5F31402536310510F481E412
:100270001EC09C01255632402536310510F482E41B
:1002800016C09C012B5C32402536310510F483E406
:100290000EC09C01215333402536310510F480E80F
:1002A00006C0875993408A36910510F481E885BBD2
:1002B000369AFF91EF91DF91CF91BF91AF919F91CE
:1002C0008F917F916F915F914F913F912F911F91EE
:1002D0000F910F900FBE0F901F90189587B38067F6
:1002E00087BB85EA9EE00197F1F700C000008FEF21
:1002F00084BB81E00E945D0083EF91E00197F1F7FC
:1003000000C0000088E30E945D0090E19A95F1F73B
:1003100000C08EE00E945D0080E18A95F1F700C088
:10032000329A3E9A339A379A7894369AFFCFFB01E5
:100330009F01E8944230C4F04532B4F44A3029F4C5
:1003400097FB1EF4909581959F4F642F77270E940D
:10035000C801805D8A330CF0895D8193CB010097E1
:10036000A1F716F45DE251931082C9010C94B80113
:10037000DC01FC01672F71917723E1F7329704C00C
:100380007C916D9370836291AE17BF07C8F3089597
:10039000AA1BBB1B51E107C0AA1FBB1FA617B707AB
:1003A00010F0A61BB70B881F991F5A95A9F78095C7
:0C03B0009095BC01CD010895F894FFCF9A
:0403BC0020002C00F1
:00000001FF
