:100000000C942A000C943F000C943F000C943F0089
:100010000C943F000C943F000C943F000C943F0064
:100020000C943F000C943F000C943F000C943F0054
:100030000C943F000C943F000C943F000C943F0044
:100040000C94B9000C943F000C943F000C943F00BA
:100050000C943F0011241FBECFE5D8E0DEBFCDBF1A
:1000600010E0A0E6B0E0EEECF2E002C005900D92E8
:10007000A236B107D9F70E94F7000C9465010C94E1
:100080000000C49A0000000088B3807E88BB0895F9
:1000900011BAC39A88B3887F88BB979B03C00E941C
:1000A0004100FBCF8FEF81BB0895CF93DF931F9269
:1000B000CDB7DEB789830E944800898182BB88B3AF
:1000C000837F88BB0E94410012BA0F90DF91CF91CD
:1000D0000895CF93DF931F92CDB7DEB789830E9437
:1000E0004800898182BBC398C29A0E94410012BA1B
:1000F0000F90DF91CF910895CF93DF93EC01899119
:1001000018161CF40E946900FACFDF91CF91089570
:10011000EF92FF920F931F93CF93DF93CDB7DEB78C
:10012000EDB6FEB62DB73EB7261B310967FD3395F8
:100130000FB6F8943EBF0FBE2DBF0DB71EB70F5FB1
:100140001F4F4AE050E0B8010E942001C8010E9400
:100150007C0080E690E00E947C000FB6F894FEBE22
:100160000FBEEDBEDF91CF911F910F91FF90EF90E9
:1001700008951F920F920FB60F9211242F933F9361
:100180004F935F936F937F938F939F93AF93BF939F
:10019000CF93DF93EF93FF93C4B185B1D0E0D82B19
:1001A00081E00E94550083EF91E00197F1F700C0D4
:1001B000000064E0CE010E94880083ED90E3019787
:1001C000F1F700C00000369AFF91EF91DF91CF91D7
:1001D000BF91AF919F918F917F916F915F914F915F
:1001E0003F912F910F900FBE0F901F90189587B3DE
:1001F0008C6187BB85EA9EE00197F1F700C00000A3
:100200008FEF84BB81E00E94550083EF91E001975E
:10021000F1F700C0000088E30E94550090E19A9534
:10022000F1F700C08EE00E94550080E18A95F1F759
:1002300000C0329A3E9A339A379A7894369AFFCF12
:10024000FB019F01E8944230C4F04532B4F44A30D7
:1002500029F497FB1EF4909581959F4F642F772783
:100260000E945101805D8A330CF0895D8193CB013E
:100270000097A1F716F45DE251931082C9010C9426
:100280004101DC01FC01672F71917723E1F732977F
:1002900004C07C916D9370836291AE17BF07C8F361
:1002A0000895AA1BBB1B51E107C0AA1FBB1FA617BD
:1002B000B70710F0A61BB70B881F991F5A95A9F70F
:0E02C00080959095BC01CD010895F894FFCF74
:0202CE0020000E
:00000001FF
