:100000000C942A000C9447000C9447000C94470071
:100010000C9447000C9447000C9447000C94470044
:100020000C9447000C9447000C9447000C94470034
:100030000C9447000C9447000C9447000C94470024
:100040000C94C1000C9447000C9447000C9447009A
:100050000C94470011241FBECFE5D8E0DEBFCDBF12
:1000600010E0A0E6B0E0ECEAF4E002C005900D92EA
:10007000A836B107D9F710E0A8E6B0E001C01D929C
:10008000A239B107E1F70E94E1010C9454020C94EB
:100090000000C49A0000000088B3807E88BB0895E9
:1000A00011BAC39A88B3887F88BB979B03C00E940C
:1000B0004900FBCF8FEF81BB0895CF93DF931F9251
:1000C000CDB7DEB789830E945000898182BB88B397
:1000D000837F88BB0E94490012BA0F90DF91CF91B5
:1000E0000895CF93DF931F92CDB7DEB789830E9427
:1000F0005000898182BBC398C29A0E94490012BAFB
:100100000F90DF91CF910895CF93DF93EC01899108
:1001100018161CF40E947100FACFDF91CF91089558
:10012000EF92FF920F931F93CF93DF93CDB7DEB77C
:10013000EDB6FEB62DB73EB7261B310967FD3395E8
:100140000FB6F8943EBF0FBE2DBF0DB71EB70F5FA1
:100150001F4F4AE050E0B8010E942302C8010E94EC
:10016000840080E690E00E9484000FB6F894FEBE02
:100170000FBEEDBEDF91CF911F910F91FF90EF90D9
:1001800008951F920F920FB60F9211242F933F9351
:100190004F935F936F937F938F939F93AF93BF938F
:1001A000EF93FF9324B185B130E0382B87B18134D0
:1001B00009F458C0823409F49EC0803409F0EFC0BD
:1001C00040918E0050918F0080917E0090917F0031
:1001D000403551050CF49AC060E570E00E940F02B2
:1001E00070937F0060937E0030938B0020938A0091
:1001F00081E00E945D0083EF91E00197F1F700C07C
:10020000000080E80E945D0083EF91E00197F1F724
:1002100000C0000082E690E00E94840064E08091CB
:100220008A0090918B000E94900083ED90E30197EB
:10023000F1F700C0000010928F0010928E00109213
:100240007F0010927E0080918A0090918B00889FA1
:100250009001899F300D300D11243093850020933B
:1002600084009DC040918E0050918F0080917E004F
:1002700090917F00403551050CF448C060E570E076
:100280000E940F0270937F0060937E00709389003C
:100290006093880085E80E945D0083EF91E00197FC
:1002A000F1F700C0000084E690E00E94840064E062
:1002B00080918800909189000E94900083E294EFE1
:1002C0000197F1F700C0000010928F0010928E008D
:1002D00010927F0010927E0080918800909189009A
:1002E000889F9001899F300D300D11243093830039
:1002F0002093820054C040918E0050918F008091D5
:100300007E0090917F00403551056CF4280F391F15
:1003100030937F0020937E004F5F5F4F50938F009C
:1003200040938E003CC060E570E00E940F02709325
:100330007F0060937E0070938700609386008AE858
:100340000E945D0083EF91E00197F1F700C000008B
:1003500086E690E00E94840064E08091860090919F
:1003600087000E94900083ED90E30197F1F700C0B1
:10037000000010928F0010928E0010927F00109259
:100380007E008091860090918700889F9001899FD0
:10039000300D300D11243093810020938000369A67
:1003A000FF91EF91BF91AF919F918F917F916F914D
:1003B0005F914F913F912F910F900FBE0F901F9023
:1003C000189587B38C6187BB85EA9EE00197F1F7AA
:1003D00000C000008FEF84BB81E00E945D0083EFCE
:1003E00091E00197F1F700C0000088E30E945D00F2
:1003F00090E19A95F1F700C08EE00E945D0080E1E7
:100400008A95F1F700C0329A81E487B9339A379A16
:100410007894369A10928F0010928E00FFCFAA1B0C
:10042000BB1B51E107C0AA1FBB1FA617B70710F0DF
:10043000A61BB70B881F991F5A95A9F78095909511
:10044000BC01CD010895FB019F01E8944230C4F046
:100450004532B4F44A3029F497FB1EF49095819507
:100460009F4F642F77270E940F02805D8A330CF024
:10047000895D8193CB010097A1F716F45DE251935A
:100480001082C9010C944402DC01FC01672F7191B8
:100490007723E1F7329704C07C916D93708362916A
:0C04A000AE17BF07C8F30895F894FFCF13
:0804AC00200030003100320095
:00000001FF
