:100000000C942A000C9447000C9447000C94470071
:100010000C9447000C9447000C9447000C94470044
:100020000C9447000C9447000C9447000C94470034
:100030000C9447000C9447000C9447000C94470024
:100040000C94C1000C9447000C9447000C9447009A
:100050000C94470011241FBECFE5D8E0DEBFCDBF12
:1000600010E0A0E6B0E0E6E3F5E002C005900D92F6
:10007000A439B107D9F710E0A4E9B0E001C01D929E
:10008000AE3BB107E1F70E9426020C9499020C9452
:100090000000C49A0000000088B3807E88BB0895E9
:1000A00011BAC39A88B3887F88BB979B03C00E940C
:1000B0004900FBCF8FEF81BB0895CF93DF931F9251
:1000C000CDB7DEB789830E945000898182BB88B397
:1000D000837F88BB0E94490012BA0F90DF91CF91B5
:1000E0000895CF93DF931F92CDB7DEB789830E9427
:1000F0005000898182BBC398C29A0E94490012BAFB
:100100000F90DF91CF910895CF93DF93EC01899108
:1001100018161CF40E947100FACFDF91CF91089558
:10012000EF92FF920F931F93CF93DF93CDB7DEB77C
:10013000EDB6FEB62DB73EB7261B310967FD3395E8
:100140000FB6F8943EBF0FBE2DBF0DB71EB70F5FA1
:100150001F4F4AE050E0B8010E946802C8010E94A7
:1001600084008AE790E00E9484000FB6F894FEBEF7
:100170000FBEEDBEDF91CF911F910F91FF90EF90D9
:1001800008951F920F920FB60F9211242F933F9351
:100190004F935F936F937F938F939F93AF93BF938F
:1001A000EF93FF9324B185B130E0382B87B18134D0
:1001B00009F46EC0823409F4C0C0803409F034C13F
:1001C0004091BA005091BB008091AA009091AB0081
:1001D000403551056CF4280F391F3093AB00209344
:1001E000AA004F5F5F4F5093BB004093BA0045C0D9
:1001F00060E570E00E9454027093AB006093AA0027
:100200003093B7002093B60081E00E945D0083EF39
:1002100091E00197F1F700C0000080E80E945D00C6
:1002200083EF91E00197F1F700C0000080E690E0D5
:100230000E94840064E08091B6009091B7000E9413
:10024000900083ED90E30197F1F700C00000109259
:10025000BB001092BA001092AB001092AA008091DD
:10026000B6009091B700889F9001899F300D300DA6
:1002700011243093B1002093B00080EC0E945D0007
:1002800087B164E090E00E94900082E690E0CAC0EE
:100290004091BA005091BB008091AA009091AB00B0
:1002A000403551056CF4280F391F3093AB00209373
:1002B000AA004F5F5F4F5093BB004093BA00B4C099
:1002C00060E570E00E9454027093AB006093AA0056
:1002D0007093B5006093B40085E80E945D0083EFE1
:1002E00091E00197F1F700C0000086E690E00E94DF
:1002F000840064E08091B4009091B5000E94900069
:1003000083ED90E30197F1F700C000001092BB006D
:100310001092BA001092AB001092AA008091B40023
:100320009091B500889F9001899F300D300D112468
:100330003093AF002093AE0077C04091BA00509147
:10034000BB008091AA009091AB00403551056CF440
:10035000280F391F3093AB002093AA004F5F5F4FE7
:100360005093BB004093BA003CC060E570E00E942F
:1003700054027093AB006093AA007093B300609333
:10038000B2008AE80E945D0083EF91E00197F1F7E7
:1003900000C0000088E690E00E94840064E0809144
:1003A000B2009091B3000E94900083E294EF019715
:1003B000F1F700C000001092BB001092BA0010923A
:1003C000AB001092AA008091B2009091B300889F78
:1003D0009001899F300D300D11243093AD00209392
:1003E000AC008091B2009091B3008D3D910530F04A
:1003F00080EC0E945D008AE690E014C09C01225DC2
:1004000031092B30310530F480EC0E945D008CE71F
:1004100090E008C0813D910539F080EC0E945D00BC
:1004200085E890E00E948400369AFF91EF91BF9199
:10043000AF919F918F917F916F915F914F913F917C
:100440002F910F900FBE0F901F90189587B38C615E
:1004500087BB85EA9EE00197F1F700C000008FEFAF
:1004600084BB81E00E945D0083EF91E00197F1F78A
:1004700000C0000088E30E945D0090E19A95F1F7CA
:1004800000C08EE00E945D0080E18A95F1F700C017
:10049000329A82E487B9339A379A7894369A1092CE
:1004A000BB001092BA00FFCFAA1BBB1B51E107C0D3
:1004B000AA1FBB1FA617B70710F0A61BB70B881FF4
:1004C000991F5A95A9F780959095BC01CD01089583
:1004D000FB019F01E8944230C4F04532B4F44A3045
:1004E00029F497FB1EF4909581959F4F642F7727F1
:1004F0000E945402805D8A330CF0895D8193CB01A8
:100500000097A1F716F45DE251931082C9010C9493
:100510008902DC01FC01672F71917723E1F73297A3
:1005200004C07C916D9370836291AE17BF07C8F3CE
:060530000895F894FFCFCE
:1005360030004F555400310032004472792020209B
:10054600202020202020202020202000566572799F
:1005560020576574004D6F69737420202020202079
:040566002020200031
:00000001FF
