:100000000C942A000C9447000C9447000C94470071
:100010000C9447000C9447000C9447000C94470044
:100020000C9447000C9447000C9447000C94470034
:100030000C9447000C9447000C9447000C94470024
:100040000C94C1000C9447000C9447000C9447009A
:100050000C94470011241FBECFE5D8E0DEBFCDBF12
:1000600010E0A0E6B0E0E0E2F3E002C005900D92FF
:10007000AA36B107D9F710E0AAE6B0E001C01D9298
:10008000A837B107E1F70E941D010C948E010C9472
:100090000000959A0000000082B3807C82BB089526
:1000A00017BA979A82B3887F82BBC79B03C00E940E
:1000B0004900FBCF8FEF87BB0895CF93DF931F924B
:1000C000CDB7DEB789830E945000898188BB82B397
:1000D0008B7782BB0E94490018BA0F90DF91CF91B5
:1000E0000895CF93DF931F92CDB7DEB789830E9427
:1000F0005000898188BB9798929A0E94490018BA4B
:100100000F90DF91CF910895CF93DF93EC01899108
:1001100018161CF40E947100FACFDF91CF91089558
:10012000EF92FF920F931F93CF93DF93CDB7DEB77C
:10013000EDB6FEB62DB73EB7261B310967FD3395E8
:100140000FB6F8943EBF0FBE2DBF0DB71EB70F5FA1
:100150001F4F4AE050E0B8010E944901C8010E94C7
:10016000840088E690E00E9484000FB6F894FEBEFA
:100170000FBEEDBEDF91CF911F910F91FF90EF90D9
:1001800008951F920F920FB60F9211242F933F9351
:100190004F935F936F937F938F939F93AF93BF938F
:1001A000CF93DF93EF93FF93C4B185B1D0E0D82B09
:1001B00040917000509171006091720070917300D5
:1001C0004C0F5D1F611D711D4093700050937100B5
:1001D000609372007093730081E00E945D0083EF72
:1001E00091E00197F1F700C0000080E690E00E94E6
:1001F000840064E0CE010E94900087EA91E60197B6
:10020000F1F700C0000089EF90E00197F1F700C01E
:100210000000369AFF91EF91DF91CF91BF91AF919E
:100220009F918F917F916F915F914F913F912F910E
:100230000F900FBE0F901F90189581B3846A81BBF9
:1002400085EA9EE00197F1F700C0000084B3836067
:1002500084BB81E00E945D0083EF91E00197F1F79C
:1002600000C0000088E30E945D0090E19A95F1F7DC
:1002700000C08EE00E945D0080E18A95F1F700C029
:10028000329A87B1806C87B9339A379A7894369AC4
:10029000FFCFFB019F01E8944230C4F04532B4F433
:1002A0004A3029F497FB1EF4909581959F4F642F57
:1002B00077270E947A01805D8A330CF0895D8193F3
:1002C000CB010097A1F716F45DE251931082C901AA
:1002D0000C946A01DC01FC01672F71917723E1F72F
:1002E000329704C07C916D9370836291AE17BF0703
:1002F000C8F30895AA1BBB1B51E107C0AA1FBB1F6F
:10030000A617B70710F0A61BB70B881F991F5A95A1
:10031000A9F780959095BC01CD010895F894FFCF81
:0A032000526573756C74203D2000D7
:00000001FF
