:100000000C942A000C943F000C943F000C943F0089
:100010000C943F000C943F000C943F000C943F0064
:100020000C943F000C943F000C943F000C943F0054
:100030000C943F000C943F000C943F000C943F0044
:100040000C943F000C943F000C943F000C943F0034
:100050000C943F0011241FBECFE5D8E0DEBFCDBF1A
:1000600010E0A0E6B0E0EEE6F2E002C005900D92EE
:10007000AC36B107D9F70E94B9000C9435010C9445
:100080000000959A0000000082B3807C82BB089536
:1000900017BA979A82B3887F82BBC79B03C00E941E
:1000A0004100FBCF8FEF87BB0895CF93DF931F9263
:1000B000CDB7DEB789830E944800898188BB82B3AF
:1000C0008B7782BB0E94410018BA0F90DF91CF91CD
:1000D0000895CF93DF931F92CDB7DEB789830E9437
:1000E0004800898188BB9798929A0E94410018BA6B
:1000F0000F90DF91CF910895CF93DF93EC01899119
:1001000018161CF40E946900FACFDF91CF91089570
:10011000EF92FF920F931F93CF93DF93CDB7DEB78C
:10012000EDB6FEB62DB73EB7261B310967FD3395F8
:100130000FB6F8943EBF0FBE2DBF0DB71EB70F5FB1
:100140001F4F4AE050E0B8010E94F000C8010E9431
:100150007C0089E690E00E947C000FB6F894FEBE19
:100160000FBEEDBEDF91CF911F910F91FF90EF90E9
:10017000089581B3846A81BB85EA9EE00197F1F717
:1001800000C0000081E00E94550083EF91E00197DC
:10019000F1F700C0000088E30E94550090E19A95B5
:1001A000F1F700C08EE00E94550020E12A95F1F79A
:1001B00000C080E690E00E947C008FE794E82EE18A
:1001C000815090402040E1F700C0000081E00E9493
:1001D000550083EF91E00197F1F700C00000E9CFEF
:1001E000FB019F01E8944230C4F04532B4F44A3038
:1001F00029F497FB1EF4909581959F4F642F7727E4
:100200000E942101805D8A330CF0895D8193CB01CE
:100210000097A1F716F45DE251931082C9010C9486
:100220001101DC01FC01672F71917723E1F732970F
:1002300004C07C916D9370836291AE17BF07C8F3C1
:100240000895AA1BBB1B51E107C0AA1FBB1FA6171D
:10025000B70710F0A61BB70B881F991F5A95A9F76F
:0E02600080959095BC01CD010895F894FFCFD4
:0C026E0052696464686973680020000035
:00000001FF
