:1000000012C024C023C022C021C020C01FC01EC0F7
:100010001DC01CC01BC01AC019C018C017C016C014
:1000200015C014C013C011241FBECFE5D4E0DEBF3D
:10003000CDBF10E0A0E6B0E0EEE9F3E002C005902D
:100040000D92A637B107D9F7E6D0A7C1D9CFFF9255
:100050000F931F93CF93DF9300D000D01F92CDB7A3
:10006000DEB7FE01319625E0DF011D922A95E9F702
:100070008E9A969AE7EAF1E63197F1F700C0000010
:100080009698A3E9B1E11197F1F700C00000969AA4
:100090008E98BDE0BA95F1F70000869B02C08FEF05
:1000A00051C0EAE1EA95F1F700C0869BF8CFFAE18A
:1000B000FA95F1F700C0FE013196DE01169601E0D7
:1000C00010E027E030E0F12C49EC50E0869906C0C2
:1000D0004150510941155105C9F7E1CF4AE04A9510
:1000E000F1F7869B07C0A801022E01C0440F0A94B5
:1000F000EAF7F42A49EC50E0869B06C041505109CA
:1001000041155105C9F7CBCF21503109E8F6F192DD
:10011000EA17FB07B1F68E9A969AA7EAB1E611970D
:10012000F1F700C0000039814B812A81230F240F91
:100130005C81250F5D812513B2CFFC014083DB017B
:100140003C9380E00F900F900F900F900F90DF91F5
:10015000CF911F910F91FF900895CF93DF931F923E
:10016000CDB7DEB71982BE016F5F7F4F70DF0F9092
:10017000DF91CF910895CF93DF931F92CDB7DEB774
:100180001982BC01CE01019662DF0F90DF91CF9101
:1001900008955DCF959A0000000082B3807C82BBF9
:1001A000089517BA979A82B3887F82BBC79B02C013
:1001B000F1DFFCCF8FEF87BB0895CF93DF931F92C2
:1001C000CDB7DEB78983EDDF898188BB82B38B77BA
:1001D00082BBE0DF18BA0F90DF91CF910895CF93E3
:1001E000DF931F92CDB7DEB78983DBDF898188BBC0
:1001F0009798929ACFDF18BA0F90DF91CF91089518
:10020000CF93DF93EC018991181614F4E8DFFBCF4C
:10021000DF91CF910895CF93DF93CDB7DEB7C65668
:10022000D1090FB6F894DEBF0FBECDBF81B3846A8B
:1002300081BB85EA9EE00197F1F700C0000084B31E
:10024000836084BB81E0B9DF83EF91E00197F1F730
:1002500000C0000088E3B1DF90E19A95F1F700C09B
:100260008EE0ABDF20E12A95F1F700C0A7961FAE24
:10027000A797A6961FAEA697BE016B597F4FCE01DA
:100280008A599F4FE4DE8F3FD1F181E096DF83EF03
:1002900091E00197F1F700C0000085B391E0892754
:1002A00085BBA998A7968FADA7974AE050E0BE01FD
:1002B0006F5F7F4F992787FD90952CD080E690E067
:1002C0009FDFCE0101969CDF88E690E099DFA6963D
:1002D0008FADA6974AE050E0BE016F5F7F4F992730
:1002E00087FD909517D080EC68DF8CE690E088DF82
:1002F000CE01019685DF82E790E082DF01C0A99AF6
:100300009FED23E984E0915020408040E1F700C058
:100310000000B2CFFB019F01E8944230BCF04532AF
:10032000ACF44A3029F497FB1EF4909581959F4FC9
:10033000642F77271ED0805D8A330CF0895D81930E
:10034000CB010097A9F716F45DE251931082C90121
:1003500000C0DC01FC01672F71917723E1F7329730
:1003600004C07C916D9370836291AE17BF07C8F390
:100370000895AA1BBB1B51E107C0AA1FBB1FA617EC
:10038000B70710F0A61BB70B881F991F5A95A9F73E
:0E03900080959095BC01CD010895F894FFCFA3
:10039E0054656D70203D2000202743005248203DBB
:0603AE00200020250000E4
:00000001FF
