:100000000C942A000C943F000C943F000C943F0089
:100010000C943F000C943F000C943F000C943F0064
:100020000C943F000C943F000C943F000C943F0054
:100030000C943F000C943F000C943F000C943F0044
:100040000C943F000C943F000C943F000C943F0034
:100050000C943F0011241FBECFE5D8E0DEBFCDBF1A
:1000600010E0A0E6B0E0EAE0F4E002C005900D92F6
:10007000A637B107D9F70E942E010C9403020C9405
:100080000000FF920F931F93CF93DF9300D000D017
:100090001F92CDB7DEB7FE01319625E0DF011D923C
:1000A0002A95E9F7B89AC09AE7EAF1E63197F1F7AD
:1000B00000C00000C098A3E9B1E11197F1F700C0BA
:1000C0000000C09AB898BDE0BA95F1F70000B09B67
:1000D00002C08FEF51C0EAE1EA95F1F700C0B09B92
:1000E000F8CFFAE1FA95F1F700C0FE013196DE0192
:1000F000169601E010E027E030E0F12C49EC50E0EA
:10010000B09906C04150510941155105C9F7E1CFD9
:100110004AE04A95F1F7B09B07C0A801022E01C042
:10012000440F0A94EAF7F42A49EC50E0B09B06C069
:100130004150510941155105C9F7CBCF2150310923
:10014000E8F6F192EA17FB07B1F6B89AC09AA7EA67
:10015000B1E61197F1F700C0000039814B812A8187
:10016000230F240F5C81250F5D812513B2CFFC0185
:100170004083DB013C9380E00F900F900F900F9035
:100180000F90DF91CF911F910F91FF900895CF9322
:10019000DF931F92CDB7DEB71982BE016F5F7F4F2D
:1001A0000E9441000F90DF91CF910895CF93DF938C
:1001B0001F92CDB7DEB71982BC01CE0101960E9415
:1001C00041000F90DF91CF9108950C944100C49AA3
:1001D0000000000088B3807E88BB089511BAC59ADC
:1001E00088B3807888BB979B03C00E94E700FBCF51
:1001F0008FEF81BB0895CF93DF931F92CDB7DEB70A
:1002000089830E94EE00898182BB88B38F7988BB85
:100210000E94E70012BA0F90DF91CF910895CF931B
:10022000DF931F92CDB7DEB789830E94EE008981EC
:1002300082BBC598C69A0E94E70012BA0F90DF9160
:10024000CF910895CF93DF93EC01899118161CF498
:100250000E940F01FACFDF91CF910895CF93DF93E2
:10026000CDB7DEB7C656D1090FB6F894DEBF0FBEC4
:10027000CDBF87B3806787BB85EA9EE00197F1F722
:1002800000C0000084B3836084BB81E00E94FB0057
:1002900083EF91E00197F1F700C0000088E30E942E
:1002A000FB0090E19A95F1F700C08EE00E94FB0000
:1002B00020E12A95F1F700C0A7961FAEA797A69652
:1002C0001FAEA697BE016B597F4FCE018A599F4F33
:1002D0000E9441008F3F09F444C081E00E94FB006E
:1002E00083EF91E00197F1F700C0000085B391E042
:1002F000892785BBA998A7968FADA7974AE050E0BC
:10030000BE016F5F7F4F992787FD90950E94BE01C8
:1003100080E690E00E942201CE0101960E94220117
:1003200088E690E00E942201A6968FADA6974AE04B
:1003300050E0BE016F5F7F4F992787FD90950E9427
:10034000BE0180EC0E94FB008CE690E00E9422013E
:10035000CE0101960E94220182E790E00E942201D4
:1003600003C083B3826085BB9FED23E984E0915095
:1003700020408040E1F700C00000A4CFFB019F01B6
:10038000E8944230C4F04532B4F44A3029F497FB83
:100390001EF4909581959F4F642F77270E94EF015F
:1003A000805D8A330CF0895D8193CB010097A1F7C2
:1003B00016F45DE251931082C9010C94DF01DC0157
:1003C000FC01672F71917723E1F7329704C07C918C
:1003D0006D9370836291AE17BF07C8F30895AA1B8F
:1003E000BB1B51E107C0AA1FBB1FA617B70710F020
:1003F000A61BB70B881F991F5A95A9F78095909552
:0A040000BC01CD010895F894FFCF70
:10040A0054656D70203D2000202743005248203D4E
:06041A0020002025000077
:00000001FF
