:100000000C942A000C943F000C943F000C943F0089
:100010000C943F000C943F000C943F000C943F0064
:100020000C943F000C943F000C943F000C943F0054
:100030000C943F000C943F000C943F000C943F0044
:100040000C943F000C943F000C943F000C943F0034
:100050000C943F0011241FBECFE5D8E0DEBFCDBF1A
:1000600010E0A0E6B0E0E8E0F4E002C005900D92F8
:10007000A637B107D9F70E942D010C9402020C9407
:100080000000FF920F931F93CF93DF9300D000D017
:100090001F92CDB7DEB7FE01319625E0DF011D923C
:1000A0002A95E9F78E9A969AE7EAF1E63197F1F701
:1000B00000C000009698A3E9B1E11197F1F700C0E4
:1000C0000000969A8E98BDE0BA95F1F70000869BE5
:1000D00002C08FEF51C0EAE1EA95F1F700C0869BBC
:1000E000F8CFFAE1FA95F1F700C0FE013196DE0192
:1000F000169601E010E027E030E0F12C49EC50E0EA
:10010000869906C04150510941155105C9F7E1CF03
:100110004AE04A95F1F7869B07C0A801022E01C06C
:10012000440F0A94EAF7F42A49EC50E0869B06C093
:100130004150510941155105C9F7CBCF2150310923
:10014000E8F6F192EA17FB07B1F68E9A969AA7EABB
:10015000B1E61197F1F700C0000039814B812A8187
:10016000230F240F5C81250F5D812513B2CFFC0185
:100170004083DB013C9380E00F900F900F900F9035
:100180000F90DF91CF911F910F91FF900895CF9322
:10019000DF931F92CDB7DEB71982BE016F5F7F4F2D
:1001A0000E9441000F90DF91CF910895CF93DF938C
:1001B0001F92CDB7DEB71982BC01CE0101960E9415
:1001C00041000F90DF91CF9108950C944100959AD2
:1001D0000000000082B3807C82BB089517BA929A17
:1001E00082B312BAC79B03C00E94E700FBCF8FEF18
:1001F00087BB0895CF93DF931F92CDB7DEB7898376
:100200000E94EE00898188BB82B38B7782BB0E94FB
:10021000E70018BA0F90DF91CF910895CF93DF9345
:100220001F92CDB7DEB789830E94EE00898188BB1B
:100230009298979A0E94E70018BA0F90DF91CF9199
:100240000895CF93DF93EC01899118161CF40E9456
:100250000E01FACFDF91CF910895CF93DF93CDB701
:10026000DEB7C656D1090FB6F894DEBF0FBECDBFBC
:1002700081B3846A81BB85EA9EE00197F1F700C0F3
:10028000000084B3836084BB81E00E94FA0083EFA6
:1002900091E00197F1F700C0000088E30E94FA00A6
:1002A00090E19A95F1F700C08EE00E94FA0020E1FB
:1002B0002A95F1F700C0A7961FAEA797A6961FAE86
:1002C000A697BE016B597F4FCE018A599F4F0E945E
:1002D00041008F3F09F444C081E00E94FA0083EF9F
:1002E00091E00197F1F700C0000085B391E0892704
:1002F00085BBA998A7968FADA7974AE050E0BE01AD
:100300006F5F7F4F992787FD90950E94BD0180E622
:1003100090E00E942101CE0101960E94210188E611
:1003200090E00E942101A6968FADA6974AE050E08A
:10033000BE016F5F7F4F992787FD90950E94BD0199
:1003400080EC0E94FA008CE690E00E942101CE0130
:1003500001960E94210182E790E00E94210103C0E2
:1003600083B3826085BB9FED23E984E091502040F8
:100370008040E1F700C00000A4CFFB019F01E8949A
:100380004230C4F04532B4F44A3029F497FB1EF4ED
:10039000909581959F4F642F77270E94EE01805D95
:1003A0008A330CF0895D8193CB010097A1F716F495
:1003B0005DE251931082C9010C94DE01DC01FC0165
:1003C000672F71917723E1F7329704C07C916D9389
:1003D00070836291AE17BF07C8F30895AA1BBB1BB9
:1003E00051E107C0AA1FBB1FA617B70710F0A61B35
:1003F000B70B881F991F5A95A9F780959095BC0156
:08040000CD010895F894FFCF2F
:1004080054656D70203D2000202743005248203D50
:0604180020002025000079
:00000001FF
