:100000000C942A000C9447000C9447000C94470071
:100010000C9447000C9447000C9447000C94470044
:100020000C9447000C9447000C9447000C94470034
:100030000C9447000C9447000C9447000C94470024
:100040000C9447000C9447000C9447000C94470014
:100050000C94470011241FBECFE5D8E0DEBFCDBF12
:1000600010E0A0E6B0E0EAE5F2E002C005900D92F3
:10007000AC36B107D9F710E0ACE6B0E001C01D9294
:10008000A437B107E1F70E94C1000C942B010C9436
:100090000000C49A0000000088B3807E88BB0895E9
:1000A00011BAC59A88B3807888BB979B03C00E9419
:1000B0004900FBCF8FEF81BB0895CF93DF931F9251
:1000C000CDB7DEB789830E945000898182BB88B397
:1000D0008F7988BB0E94490012BA0F90DF91CF91AF
:1000E0000895CF93DF931F92CDB7DEB789830E9427
:1000F0005000898182BBC598C69A0E94490012BAF5
:100100000F90DF91CF910895CF93DF93EC01899108
:1001100018161CF40E947100FACFDF91CF91089558
:10012000EF92FF920F931F93CF93DF93CDB7DEB77C
:10013000EDB6FEB62DB73EB7261B310967FD3395E8
:100140000FB6F8943EBF0FBE2DBF0DB71EB70F5FA1
:100150001F4F4AE050E0B8010E94E600C8010E942B
:10016000840080E690E00E9484000FB6F894FEBE02
:100170000FBEEDBEDF91CF911F910F91FF90EF90D9
:10018000089587B3806787BB85EA9EE00197F1F702
:1001900000C0000081E00E945D0083EF91E00197C4
:1001A000F1F700C0000088E30E945D0090E19A959D
:1001B000F1F700C08EE00E945D0080E18A95F1F7C2
:1001C00000C082E690E00E948400FFCFFB019F0107
:1001D000E8944230C4F04532B4F44A3029F497FB35
:1001E0001EF4909581959F4F642F77270E941701E9
:1001F000805D8A330CF0895D8193CB010097A1F774
:1002000016F45DE251931082C9010C940701DC01E0
:10021000FC01672F71917723E1F7329704C07C913D
:100220006D9370836291AE17BF07C8F30895AA1B40
:10023000BB1B51E107C0AA1FBB1FA617B70710F0D1
:10024000A61BB70B881F991F5A95A9F78095909503
:0A025000BC01CD010895F894FFCF22
:0C025A00200057656C636F6D652100008B
:00000001FF
