:100000000C942A000C9434000C9434000C943400AA
:100010000C9434000C9434000C9434000C94340090
:100020000C9434000C9434000C9434000C94340080
:100030000C9434000C9434000C9434000C94340070
:100040000C9434000C9434000C9434000C94340060
:100050000C94340011241FBECFE5D8E0DEBFCDBF25
:100060000E9436000C944A000C94000081B38FEF7C
:1000700081BB8FB5826C8FBD8EB589618EBD8FE1DE
:100080009EE497BD86BD86B597B5805D97409BBDC4
:080090008ABDFFCFF894FFCFF9
:00000001FF
