:100000000C94E8000C94FD000C94FD000C94FD0091
:100010000C94FD000C94FD000C94FD000C94FD006C
:100020000C94FD000C94FD000C94FD000C94FD005C
:100030000C94FD000C94FD000C94FD000C94FD004C
:100040000C94FD000C94FD000C94FD000C94FD003C
:100050000C94FD0007634236B79BD8A71A3968563F
:1000600018AEBAAB558C1D3CB7CC5763BD6DEDFDDA
:10007000753EF6177231BF000000803F0800000097
:10008000BE922449123EABAAAA2ABECDCCCC4C3E8D
:1000900000000080BEABAAAAAA3E00000000BF007C
:1000A0000000803F0000000000084178D3BB438778
:1000B000D1133D190E3CC3BD4282AD2B3E68EC828C
:1000C00076BED98FE1A93E4C80EFFFBE01C4FF7F11
:1000D0003F000000000000407A10F35A00A0724E6A
:1000E00018090010A5D4E80000E87648170000E4DD
:1000F0000B54020000CA9A3B000000E1F505000025
:1001000080969800000040420F000000A086010089
:100110000000102700000000E80300000000640059
:10012000000000000A0000000000010000000000C4
:100130002C76D888DC674F0823DFC1DFAE59E1B1E8
:10014000B796E5E3E453C63AE651997696E8E6C2F7
:100150008426EB898C9B62ED407C6FFCEFBC9C9FFE
:1001600040F2BAA56FA5F490055A2AF75C936B6C20
:10017000F9676DC11BFCE0E40D47FEF520E6B50014
:10018000D0ED902E0300943577050080841E080082
:1001900000204E0A000000C80C333333330F986E32
:1001A00012831141EF8D2114893BE65516CFFEE6EF
:1001B000DB18D1844B381BF77C1D901DA4BBE424B5
:1001C000203284725E228100C9F124ECA1E53D2732
:1001D00011241FBECFE5D8E0DEBFCDBF10E0A0E602
:1001E000B0E0E8EBF2E102C005900D92AE36B10747
:1001F000D9F70E9450020C945A090C940000959A69
:100200000000000082B3807C82BB089517BA979AE1
:1002100082B3887F82BBC79B03C00E94FF00FBCFD5
:100220008FEF87BB0895CF93DF931F92CDB7DEB7D3
:1002300089830E940601898188BB82B38B7782BB48
:100240000E94FF0018BA0F90DF91CF910895CF93CD
:10025000DF931F92CDB7DEB789830E9406018981A3
:1002600088BB9798929A0E94FF0018BA0F90DF916E
:10027000CF910895CF93DF93EC01899118161CF468
:100280000E942701FACFDF91CF910895379887B95F
:10029000379A0895369A349BFECF84B195B1349A3B
:1002A00008950E9446010C944A0186B1876086B980
:1002B00087B187B9379A089560E070E0CB0108955F
:1002C000CF92DF92EF92FF929C010097A9F06B0111
:1002D000E12CF12CC701B6014AE0660F771F881F99
:1002E000991F4A95D1F740E050E00E94DE022C1998
:1002F0003D094E095F0903C020E030E0A901CA01B1
:10030000B901FF90EF90DF90CF900895CF93DF93E6
:1003100000D000D0CDB7DEB79A01AB010097B1F0A5
:10032000BC0180E090E029833A834B835C830E9488
:10033000ED0329813A814B815C810E947D0520E09B
:1003400030E040E85AE30E947D0503C060E070E0C1
:10035000CB010F900F900F900F90DF91CF910895E8
:1003600042E2469F9001479F300D11244EE1BC01AF
:10037000469FC001479F900D1124280F391FC901C6
:1003800056E0969587955A95E1F70895CF92DF92BA
:10039000EF92FF92CF93DF9300D000D0CDB7DEB7BE
:1003A0006B017C0162E474E389EE92E40E94230312
:1003B0000E940A052EED37E341E350EC0E9423032F
:1003C0000E9490039B01AC01C701B60129833A83C7
:1003D0004B835C830E94EF0329813A814B815C81CE
:1003E0000E947D050E94BC030F900F900F900F900C
:1003F000DF91CF91FF90EF90DF90CF900895CF9253
:10040000DF92EF92FF92CF93DF9300D000D0CDB771
:10041000DEB729833A834B835C830E94EF036B0131
:100420007C0129813A814B815C81CA01B9010E941A
:10043000EF039B01AC01C701B6010E9423036B01CE
:100440007C012AE534E64BE150E40E941F0387FF5C
:1004500019C027EC3BE447EB5EE3C701B6010E94FD
:10046000C40418167CF42EED37E341E350ECC701C9
:10047000B6010E94E00522E434E349EE52E40E9412
:100480007D0503C060E070E0CB010F900F900F90EE
:100490000F90DF91CF91FF90EF90DF90CF90089574
:1004A000CF93DF93CDB7DEB7C456D1090FB6F8941A
:1004B000DEBF0FBECDBF81B3846A81BB85EA9EE0FB
:1004C0000197F1F700C000000E9455017894412C7B
:1004D00060EC562E67E5662E7724739481E00E94C7
:1004E000130183EF91E00197F1F700C0000088E36A
:1004F0000E94130190E19A95F1F700C08EE00E94EE
:10050000130120E12A95F1F700C080E00E9451011B
:10051000009781F09C0140E050E0C301B2010E94CD
:10052000DE0269017A0180EFC81A85E5D80AE10880
:10053000F10803C0C12CD12C760123E233EA40E05C
:1005400050E0C701B6010E94FF014B015C012AE0A7
:1005500030E0AE014F5F5F4FC701B6010E94C00699
:1005600080E690E00E943A01CE0101960E943A0195
:100570009FE322E48FE0915020408040E1F700C0EB
:1005800000008E010F5F1F4F25E043E0C501B4015D
:100590000E949F0680EC0E94130187E690E00E9473
:1005A0003A01C8010E943A019FE322E48FE0915092
:1005B00020408040E1F700C0000090CF052E97FB5F
:1005C0001EF400940E94F50257FD07D00E94FD0220
:1005D00007FC03D04EF40C94F502509540953095ED
:1005E00021953F4F4F4F5F4F08959095809570959F
:1005F00061957F4F8F4F9F4F0895A1E21A2EAA1B3E
:10060000BB1BFD010DC0AA1FBB1FEE1FFF1FA217C2
:10061000B307E407F50720F0A21BB30BE40BF50BBF
:10062000661F771F881F991F1A9469F76095709548
:10063000809590959B01AC01BD01CF0108950AD131
:1006400008F481E008950CD065C15DD140F054D12B
:1006500030F021F45F3F19F021C151118FC124C145
:100660006AD198F39923C9F35523B1F3951B550B20
:10067000BB27AA2762177307840738F09F5F5F4F75
:10068000220F331F441FAA1FA9F333D00E2E3AF0B6
:10069000E0E830D091505040E695001CCAF729D0D0
:1006A000FE2F27D0660F771F881FBB1F261737071F
:1006B0004807AB07B0E809F0BB0B802DBF01FF274F
:1006C00093585F4F2AF09E3F510568F0E7C056C12E
:1006D0005F3FECF3983EDCF3869577956795B79589
:1006E000F7959F5FC9F7880F911D9695879597F9A4
:1006F0000895E1E0660F771F881FBB1F621773071D
:100700008407BA0720F0621B730B840BBA0BEE1F31
:1007100088F7E095089519F40EF0C0C02EC1C4C04A
:1007200012D1C8F39638C0F707F80F92E8942BE37C
:100730003AEA48EB5FE7EFD10F920F920F924DB775
:100740005EB70F92A7D1E4E5F0E0B1D04F915F9191
:10075000EF91FF91E595EE1FFF1F49F0FE57E0680E
:100760004427EE0F441FFA95E1F74195550B19D137
:100770000F9007FE0DC1089504D06894B111FEC01A
:100780000895E1D088F09F5790F0B92F9927B7517D
:10079000A0F0D1F0660F771F881F991F1AF0BA9545
:1007A000C9F712C0B13081F0E8D0B1E00895E5C0DA
:1007B000672F782F8827B85F39F0B93FCCF386953B
:1007C00077956795B395D9F73EF490958095709598
:1007D00061957F4F8F4F9F4F0895E89409C097FB15
:1007E0003EF490958095709561957F4F8F4F9F4F08
:1007F0009923A9F0F92F96E9BB279395F69587954C
:1008000077956795B795F111F8CFFAF4BB0F11F40E
:1008100060FF1BC06F5F7F4F8F4F9F4F16C08823B5
:1008200011F096E911C0772321F09EE8872F762FEB
:1008300005C0662371F096E8862F70E060E02AF02C
:100840009A95660F771F881FDAF7880F9695879518
:1008500097F90895990F0008550FAA0BE0E8FEEFED
:1008600016161706E807F907C0F012161306E40774
:10087000F50798F0621B730B840B950B39F40A266D
:1008800061F0232B242B252B21F408950A2609F44B
:10089000A140A6958FEF811D811D089597F99F674F
:1008A00080E870E060E008959FEF80EC0895DF93AA
:1008B000CF931F930F93FF92EF92DF927B018C01F6
:1008C000689405C0DA2EEF0124D1FE01E894A591C9
:1008D0002591359145915591AEF3EF01CFD1FE01B0
:1008E0009701A801DA9479F7DF90EF90FF900F91CC
:1008F0001F91CF91DF91089500240A9416161706D0
:1009000018060906089500240A9412161306140600
:1009100005060895092E0394000C11F4882352F063
:10092000BB0F40F4BF2B11F460FF04C06F5F7F4F1B
:100930008F4F9F4F089557FD9058440F551F59F002
:100940005F3F71F04795880F97FB991F61F09F3FBC
:1009500079F087950895121613061406551FF2CFE5
:100960004695F1DF08C0161617061806991FF1CF35
:1009700086957105610508940895E894BB2766275C
:100980007727CB0197F9089565DF08F48FEF089575
:100990009B01AC0160E070E080E89FE354CE7ECF25
:1009A000C0C1D1DFE8F39923D9F3940F511DBBF3F4
:1009B0009150504094F059F0882332F0660F771F21
:1009C000881F91505040C1F79E3F510544F7880F52
:1009D000911D9695879597F908955F3FACF0983EE5
:1009E0009CF0BB27869577956795B79508F4B1601D
:1009F0009395C1F7BB0F58F711F460FFE8CF6F5F15
:100A00007F4F8F4F9F4FE3CFB9CF0EF08AC14CCFAE
:100A1000689444CF98DFC8F39923D1F3C6F3DF93EA
:100A2000CF931F930F93FF92C92FDD2788232AF0BE
:100A30002197660F771F881FDAF720E030E040E843
:100A40005FEB9FE3883920F0803E30F021968F776E
:100A500004D1ECE7F0E003C000D1E9EAF0E027DFE1
:100A60008B01BE01EC01FB2E6F5771097595771F45
:100A7000880B990BB4DE28E132E741E35FE349D00C
:100A8000AF2D9801AE01FF900F911F91CF91DF9193
:100A9000F5D040CFFA01DC01AA0FBB1F9B01AC01CE
:100AA000BF5728F422273327442750781FC0B75157
:100AB00088F4AB2F0024469537952795011CA39504
:100AC000D2F3002069F0220F331F441FB395DAF3ED
:100AD0000DD0C2C061307105A0E88A07B94630F474
:100AE0009B01AC016627772788279078309621F004
:100AF000208331834283538308950BD00BCFFCDED8
:100B000028F001DF18F0952309F0C8CECDCE1124CE
:100B100035CF11DFA0F3959FD1F3950F50E0551F0E
:100B2000629FF001729FBB27F00DB11D639FAA2742
:100B3000F00DB11DAA1F649F6627B00DA11D661F91
:100B4000829F2227B00DA11D621F739FB00DA11DB2
:100B5000621F839FA00D611D221F749F3327A00D6C
:100B6000611D231F849F600D211D822F762F6A2F08
:100B700011249F5750408AF0E1F088234AF0EE0F8D
:100B8000FF1FBB1F661F771F881F91505040A9F79A
:100B90009E3F510570F082CEF1CE5F3FECF3983E60
:100BA000DCF3869577956795B795F795E7959F5F01
:100BB000C1F7FE2B880F911D9695879597F908959B
:100BC000FA01EE0FFF1F30962105310599F16115ED
:100BD000710561F48038BFE39B0749F16894903850
:100BE000810561F08038BFEF9B0741F0992342F502
:100BF000FF3FE1053105210511F1E8940894E795DF
:100C0000D901AA2329F4AB2FBE2FF85FD0F310C06F
:100C1000FF5F70F4A695E0F7F73950F019F0FF3A4E
:100C200038F49F779F930CD00F9007FC905808954D
:100C30003EF03ACE60E070E080E89FE308954FE731
:100C40009F775F934F933F932F93E4DE2F913F91D4
:100C50004F915F9152DF64CD5058BB27AA270ED029
:100C600059CE4ADE30F04FDE20F031F49F3F11F4D0
:100C70001EF41ACE0EF4E095E7FB10CEE92F5BDEF2
:100C800080F3BA17620773078407950718F071F4A9
:100C90009EF573CE0EF4E0950B2EBA2FA02D0B010E
:100CA000B90190010C01CA01A0011124FF27591BB1
:100CB00099F0593F50F4503E68F11A16F040A22FB7
:100CC000232F342F4427585FF3CF46953795279528
:100CD000A795F0405395C9F77EF41F16BA0B620B27
:100CE000730B840BBAF09150A1F0FF0FBB1F661F6E
:100CF000771F881FC2F70EC0BA0F621F731F841FB1
:100D000048F4879577956795B795F7959E3F08F0D6
:100D1000B3CF9395880F08F09927EE0F9795879595
:100D200008959F3F31F0915020F48795779567950E
:100D3000B795880F911D9695879597F90895EF922D
:100D40000F931F93CF93DF93E80147FF02C034E175
:100D500001C034E0E42FFF27E7FDF095F7FF03C063
:100D6000F195E195F109E32E022F2E2FAE010E949D
:100D7000F406CE01DF91CF911F910F91EF9008956E
:100D8000FA01CF93FF93EF93223044F1253234F5EB
:100D9000C22FE894CA3049F497FB3EF490958095B1
:100DA000709561957F4F8F4F9F4F2C2F332744278E
:100DB0005527FF93EF930E94FD02EF91FF91605D35
:100DC0006A330CF0695D6193B901CA0160507040EB
:100DD0008040904051F716F4CDE2C19310828F917C
:100DE0009F91CF910C944A096F927F929F92AF92FC
:100DF000BF92CF92DF92EF92FF920F931F93CF9308
:100E0000DF93CDB7DEB729970FB6F894DEBF0FBEDC
:100E1000CDBF6A01B22E102F0C3320F4FF24F394BF
:100E2000F00E02C04CE3F42E0F2D27E0AE014F5F11
:100E30005F4F0E9472087981272F2970213031F08D
:100E4000E1FC06C0E0FC06C060E005C06DE203C046
:100E50006BE201C060E2AE2DA07173FF36C0662365
:100E600011F084E001C083E08B1510F4B81A01C0C2
:100E7000B12CA1110BC0F6018B2D90E2882319F043
:100E800091938150FBCFCB0CD11CB12C662331F058
:100E9000F601608396012F5F3F4F6901C6010396FB
:100EA000E2FE05C02EE4F601208331E404C02EE604
:100EB000F601208331E631832283FC012B2D30E2C1
:100EC0002223F1F131932150FBCF72FF40C0662302
:100ED00011F084E001C083E08B1510F4B81A01C052
:100EE000B12CA1110BC0F6018B2D90E2882319F0D3
:100EF00091938150FBCFCB0CD11CB12C662331F0E8
:100F0000F601608396012F5F3F4F6901C60103968A
:100F1000E2FE07C029E4F60120832EE4218326E4C3
:100F200006C029E6F60120832EE6218326E62283E9
:100F3000FC012B2D30E2222319F031932150FBCFFD
:100F4000FC01EB0DF11D10828EEF9FEFB7C0B1E0F9
:100F5000611101C0B0E04B2F50E01816190624F4BF
:100F60009C012F5F3F4F02C021E030E0240F351F6E
:100F7000112329F0412F50E04F5F5F4F02C040E046
:100F800050E0420F531F2B2D30E04217530714F44B
:100F9000B41A01C0B12C2E2D287159F4F6012B2D55
:100FA00030E2222319F031932150FBCFCB0CD11C1E
:100FB000B12CBB2331F0F601608396012F5F3F4FC8
:100FC0006901A1110BC0F6012B2D30E3222319F08A
:100FD00031932150FBCFCB0CD11CB12CF80E0A81E0
:100FE000372F3071A32E74FF03C0013309F4FA9434
:100FF0001F142CF42F2D293018F028E001C021E017
:10100000682F392F97FF02C060E030E0462F532F42
:10101000612C712C3EE2932EBC01621B71099B0175
:10102000DC01A41BB50BE1E0F0E0EC0FFD1FAE0FFF
:10103000BF1FE12EF12CF194E194F1084F3FFFEF37
:101040005F0731F4F6019082B6016F5F7F4F6B014D
:10105000841795074CF02417350734F4BD01660D4D
:10106000771DFB01118101C010E341505109FFEFD1
:101070006F1A7F0AB6016F5F7F4F4E155F0524F030
:10108000F60110836B01DACF4817590739F406339C
:1010900020F4053319F4A11001C011E3F601108307
:1010A000FB018B2D90E2882319F091938150FBCFA7
:1010B000FB01EB0DF11D108280E090E029960FB648
:1010C000F894DEBF0FBECDBFDF91CF911F910F917E
:1010D000FF90EF90DF90CF90BF90AF909F907F9068
:1010E0006F900895283008F027E03327DA01990F30
:1010F000311D87FD916000966105710539F43260FC
:101100002E5F3D9330E32A95E1F708959F3F30F03D
:1011100080387105610509F03C5F3C5F3D9391307B
:1011200008F08068911DDF93CF931F930F93FF9278
:10113000EF92192F987F9695E92F96959695E90F3E
:10114000FF27E05DFE4F99273327EE24FF24A701F8
:10115000E70105900894079428F4360FE71EF81E5F
:10116000491F511D660F771F881F991F0694A1F70D
:101170000590079428F4E70EF81E491F561FC11D5D
:10118000770F881F991F661F0694A1F70590079493
:1011900028F4F80E491F561FC71FD11D880F991F2D
:1011A000661F771F0694A1F70590079420F4490F56
:1011B000561FC71FD81F990F661F771F881F0694D9
:1011C000A9F784911095177041F0D695C79557955A
:1011D0004795F794E7941A95C1F7E6EDF0E0689427
:1011E0001590159135916591959105907FE27395D4
:1011F000E118F10A430B560BC90BD009C0F7E10CFB
:10120000F11E431F561FC91FD01D7EF4703311F409
:101210008A95E6CFE894015030F0080F0AF40027D1
:10122000021708F4202F2395022F7A3328F079E350
:101230007D932A95E9F710C07D932A9589F6069447
:1012400097956795379517951794E118F10A430B11
:10125000560BC90BD00998F023957E9173957A337C
:1012600008F070E37C932013B8F77E9170617D9352
:1012700030F0839571E37D9370E32A95E1F71124B3
:10128000EF90FF900F911F91CF91DF91992787FDEC
:1012900090950895DC01FC01672F71917723E1F7A8
:1012A000329704C07C916D9370836291AE17BF0733
:0812B000C8F30895F894FFCF84
:0E12B800526573203D200050504D203D200017
:00000001FF
